:020000040000fa
:04025c00b279000073
:020000040000fa
:0403c400b27900000a
:020000040000fa
:0403c800b279000006
:020000040000fa
:04021000b2790000bf
:020000040000fa
:04027400b27900005b
:020000040000fa
:04033400b27900009a
:020000040000fa
:04035c00b279000072
:020000040000fa
:04027000b27900005f
:020000040000fa
:04036000b27900006e
:020000040000fa
:04036400b27900006a
:020000040000fa
:04023800b279000097
:020000040000fa
:04026000b27900006f
:020000040000fa
:04028800b279000047
:020000040000fa
:0402b800b279000017
:020000040000fa
:0402e000b2790000ef
:020000040000fa
:04031c00b2790000b2
:020000040000fa
:0403d000b2790000fe
:020000040000fa
:04022c00b2790000a3
:020000040000fa
:04023c00b279000093
:020000040000fa
:0402bc00b279000013
:020000040000fa
:0402c000b27900000f
:020000040000fa
:0402c400b27900000b
:020000040000fa
:0402c800b279000007
:020000040000fa
:04028000b27900004f
:020000040000fa
:04028400b27900004b
:020000040000fa
:04039c00b279000032
:020000040000fa
:04022800b2790000a7
:020000040000fa
:04027800b279000057
:020000040000fa
:04029c00b279000033
:020000040000fa
:0402fc00b2790000d3
:020000040000fa
:04030000b2790000ce
:020000040000fa
:0403bc00b279000012
:020000040000fa
:0403c000b27900000e
:020000040000fa
:0403d400b2790000fa
:020000040000fa
:0403d800b2790000f6
:020000040000fa
:0403dc00b2790000f2
:020000040000fa
:0403e000b2790000ee
:020000040000fa
:0403e400b2790000ea
:020000040000fa
:0403e800b2790000e6
:020000040000fa
:0403ec00b2790000e2
:020000040000fa
:0403f000b2790000de
:020000040000fa
:0403f400b2790000da
:020000040000fa
:0403f800b2790000d6
:020000040000fa
:04026400b27900006b
:020000040000fa
:04027c00b279000053
:020000040000fa
:0402b000b27900001f
:020000040000fa
:0402b400b27900001b
:020000040000fa
:0402e400b2790000eb
:020000040000fa
:0402e800b2790000e7
:020000040000fa
:0402f400b2790000db
:020000040000fa
:0402f800b2790000d7
:020000040000fa
:04030400b2790000ca
:020000040000fa
:04030800b2790000c6
:020000040000fa
:04030c00b2790000c2
:020000040000fa
:04031000b2790000be
:020000040000fa
:04031400b2790000ba
:020000040000fa
:04031800b2790000b6
:020000040000fa
:04032400b2790000aa
:020000040000fa
:04032800b2790000a6
:020000040000fa
:04033800b279000096
:020000040000fa
:04033c00b279000092
:020000040000fa
:04034000b27900008e
:020000040000fa
:04034400b27900008a
:020000040000fa
:04034c00b279000082
:020000040000fa
:04035000b27900007e
:020000040000fa
:04035400b27900007a
:020000040000fa
:04035800b279000076
:020000040000fa
:04036800b279000066
:020000040000fa
:04037800b279000056
:020000040000fa
:04037c00b279000052
:020000040000fa
:04039000b27900003e
:020000040000fa
:04039400b27900003a
:020000040000fa
:0403a000b27900002e
:020000040000fa
:0403a400b27900002a
:020000040000fa
:0403a800b279000026
:020000040000fa
:0403ac00b279000022
:020000040000fa
:0403b000b27900001e
:020000040000fa
:0403b400b27900001a
:020000040000fa
:0403fc00b2790000d2
:020000040000fa
:0403b800b279000016
:020000040000fa
:04034800b279000086
:020000040000fa
:04026c00b279000063
:020000040000fa
:0402f000b2790000df
:020000040000fa
:04021800b2790000b7
:020000040000fa
:04023000b27900009f
:020000040000fa
:04024000b27900008f
:020000040000fa
:04028c00b279000043
:020000040000fa
:04029000b27900003f
:020000040000fa
:0402cc00b279000003
:020000040000fa
:0402d000b2790000ff
:020000040000fa
:0402d400b2790000fb
:020000040000fa
:0402d800b2790000f7
:020000040000fa
:04039800b279000036
:020000040000fa
:04020c00b2790000c3
:020000040000fa
:0402dc00b2790000f3
:020000040000fa
:04032000b2790000ae
:020000040000fa
:04020800b2790000c7
:020000040000fa
:04021c00b2790000b3
:020000040000fa
:04022000b2790000af
:020000040000fa
:04022400b2790000ab
:020000040000fa
:0403cc00b279000002
:020000040000fa
:04026800b279000067
:020000040000fa
:0402ec00b2790000e3
:020000040000fa
:04024c00b279000083
:020000040000fa
:04025000b27900007f
:020000040000fa
:0402a800b279000027
:020000040000fa
:0402ac00b279000023
:020000040000fa
:04021400b2790000bb
:020000040000fa
:04023400b27900009b
:020000040000fa
:04024400b27900008b
:020000040000fa
:04024800b279000087
:020000040000fa
:04029400b27900003b
:020000040000fa
:04029800b279000037
:020000040000fa
:04032c00b2790000a2
:020000040000fa
:04025400b27900007b
:020000040000fa
:04025800b279000077
:020000040000fa
:04033000b27900009e
:020000040000fa
:0402a000b27900002f
:020000040000fa
:0402a400b27900002b
:020000040000fa
:04036c00b279000062
:020000040000fa
:04037000b27900005e
:020000040000fa
:04037400b27900005a
:020000040000fa
:04038400b27900004a
:020000040000fa
:04038800b279000046
:020000040000fa
:04038c00b279000042
:020000040000fa
:04038000b27900004e
:020000040000fa
:080000004011040000000000a3
:020000040000fa
:10228000ef5922000e7f22000e018800000000009e
:10229000000020000000e0000200320000012000e9
:1022a0002002880014000700170107000000e0006a
:1022b00003003a00c065270001002000020037003b
:1022c0000000200001002000810f7000010032009a
:1022d00014000700000020000000e00002003200af
:1022e0000000020000000000307902000000000041
:1022f0000040da000000fe004440a90080292000d0
:102300000000e0000300320000202000900188005f
:102310004440a800000006008a1f78008b1f780048
:1023200000000600a1028800800478000000eb0095
:102330001f003700e284440054a0b4009905ba009d
:10234000e284440054a0b4009906ba00e284440038
:1023500054a0b4000006eb00476fde00fd07b2009a
:10236000ae018800636ce10003003a00eaff070059
:102370000000eb000e003700606ce10008003a003e
:10238000004deb000a05e800020039003420ec00a3
:102390000af0a0008b05e900f9ff3e0004003700b9
:1023a0006168e100010032000086eb000b000700cd
:1023b00019c7ba001905ba000e04e00003003a007c
:1023c0000a00e000dbff3a0000000600fe07b20052
:1023d000ae0288008a047800f5ff37000cd0a30015
:1023e000e20f4d001c00390089027800354dba001b
:1023f0000a05e800020039003420ec000af0a000d1
:102400008b05e9000f003200254dba000a05e800ef
:10241000020039003420ec000af0a0008b05e9002e
:10242000080032000c00e0000600320015cdba00b2
:102430000a05e800020039003420ec000af0a00090
:102440008b05e9008984e80054a0b4000b00e0008b
:10245000e2ff3a00000006009902ba00055d78002c
:102460008b05e900f7ff3200c82ade00055d780021
:102470008b05e900f3ff32000c00e000f1ff3200b1
:1024800019ddba00eeff37003c6b040000000000cd
:10249000dc6c040000000000666c0400000000001a
:1024a000e6780400000000003e1604000000000072
:1024b0003a73040000000000be5104000000000058
:1024c0003052040000000000a45904000000000085
:1024d000e048040000000000384b04000000000049
:1024e000b24e04000000000066520400000000002c
:1024f0009c56040000000000324904000000000067
:10250000ba49040000000000d449040000000000a3
:102510005c4a040000000000764a0400000000004d
:10252000004b0400000000001c4b040000000000f1
:102530008a4b040000000000a64b040000000000cd
:10254000c24b040000000000de4b0400000000004d
:102550001e4c040000000000464c04000000000077
:10256000864c040000000000ae4c04000000000097
:10257000ee4c040000000000164d040000000000b6
:10258000564d0400000000007e4d040000000000d5
:10259000be4d040000000000e64d040000000000f5
:1025a000264e0400000000004e4e04000000000013
:1025b0008e4e040000000000044f040000000000e4
:1025c000484f040000000000624f040000000000bb
:1025d000a44f040000000000be4f040000000000f3
:1025e000fe4f040000000000225004000000000024
:1025f00056500400000000006c5004000000000071
:102600008250040000000000a650040000000000fa
:10261000b6500400000000001c510400000000003f
:10262000b852040000000000fc520400000000004a
:102630001653040000000000845304000000000052
:102640009a53040000000000da5304000000000068
:10265000fe530400000000002c54040000000000a1
:102660004254040000000000705404000000000008
:102670008654040000000000ee5404000000000036
:102680000455040000000000325504000000000062
:1026900048550400000000007655040000000000ca
:1026a0008c55040000000000cc5504000000000020
:1026b000f055040000000000465604000000000031
:1026c0005e56040000000000685604000000000090
:1026d0007256040000000000ee56040000000000e6
:1026e00058570400000000003458040000000000a7
:1026f000ee6a040000000000aa5a04000000000076
:102700006662040000000000000005006022b800be
:10271000060220000000d0008180d2000482d20096
:102720008582d2000000a0000202520083825a007b
:10273000030031000202420083824a000000a1002f
:0c2740000603e900f3ff3a000000060069
:020000040000fa
:020000040002f8
:04aff0003f0300001b
:020000040000fa
:020000040002f8
:04aff400830f0000c7
:020000040000fa
:020000040002f8
:04aff8001ff1000045
:020000040000fa
:020000040002f8
:04affc003fba000058
:020000040000fa
:102000004011040000000000b2790400000000004c
:10201000b279040000000000b27904000000000062
:10202000b279040000000000b27904000000000052
:10203000b279040000000000b27904000000000042
:10204000b279040000000000b27904000000000032
:10205000b279040000000000b27904000000000022
:10206000b2790400000000000e75040000000000ba
:102070005079040000000000b27904000000000064
:10208000b279040000000000b279040000000000f2
:10209000b279040000000000b279040000000000e2
:1020a0005076040000000000b27904000000000037
:1020b000b279040000000000b279040000000000c2
:1020c000b279040000000000b279040000000000b2
:1020d000b279040000000000b279040000000000a2
:1020e000b279040000000000b27904000000000092
:1020f000b279040000000000b27904000000000082
:10210000b279040000000000b27904000000000071
:10211000b279040000000000b27904000000000061
:10212000b279040000000000b27904000000000051
:10213000b279040000000000b27904000000000041
:10214000b279040000000000b27904000000000031
:10215000b279040000000000b27904000000000021
:10216000b279040000000000b27904000000000011
:10217000b279040000000000b27904000000000001
:10218000b279040000000000b279040000000000f1
:10219000b279040000000000b279040000000000e1
:1021a000b279040000000000b279040000000000d1
:1021b000b279040000000000b279040000000000c1
:1021c000b279040000000000b279040000000000b1
:1021d000b279040000000000b279040000000000a1
:1021e000b279040000000000b27904000000000091
:1021f000b279040000000000b27904000000000081
:10220000b279040000000000b27904000000000070
:10221000b279040000000000b27904000000000060
:10222000b279040000000000b27904000000000050
:10223000b279040000000000b27904000000000040
:10224000b279040000000000b27904000000000030
:10225000b279040000000000b27904000000000020
:10226000b279040000000000b27904000000000010
:020000040000fa
:1000080004100000081000000c1000001010000080
:1000180014100000341100003411000034110000e5
:10002800181000001c100000201000002410000010
:10003800281000002c1000003010000034100000c0
:10004800381000003c100000401000004410000070
:10005800481000004c10000050100000341100003f
:1000680054100000581000005c10000060100000e0
:100078006410000034110000681000006c100000cb
:100088007010000074100000781000007c10000050
:100098008010000084100000881000008c10000000
:1000a800901000009410000034110000341100007a
:1000b800981000009c100000a0100000a410000080
:1000c800a8100000ac100000b0100000b410000030
:1000d800b8100000bc100000c0100000341100006f
:1000e80034110000c4100000c810000034110000d2
:1000f80034110000cc100000d010000034110000b2
:1001080034110000341100003411000034110000d3
:1001180034110000d4100000d81000003411000081
:1001280034110000dc100000e0100000e4100000b2
:1001380034110000341100003411000034110000a3
:10014800e8100000341100003411000034110000e0
:1001580034110000ec100000f0100000f410000052
:1001680034110000f8100000fc100000001100001d
:1001780034110000341100000411000008110000bf
:100188000c1100001011000034110000341100009f
:10019800141100001811000034110000341100007f
:1001a8003411000034110000341100003411000033
:1001b8001c1100003411000034110000201100004f
:1001c80024110000281100002c1100003411000037
:1001d8003411000034110000341100003411000003
:1001e80034110000341100003411000034110000f3
:0801f800341100003011000079
:020000040000fa
:10274c0055490000004400004947000000530000b8
:10275c00434f000050450000005700004156000058
:10276c0045470000454e0000004600004c4100006b
:10277c0053480000004c00004544000031000000ac
:10278c004c450000443100003f0000004c45000067
:10279c0044320000004c000045440000323f000071
:1027ac00004c000045440000330000004c45000084
:1027bc00443300003f00000053570000313f00003d
:1027cc000053000045540000004300004c4500003d
:1027dc0041520000005400004f470000474c0000dd
:1027ec00450000005752000049540000450000000d
:1027fc005245000041440000004f0000440000001e
:10280c004f4400003f0000004d4f000044450000c5
:10281c00004d00004f440000453f000000500000f8
:10282c0045520000494f0000440000005045000094
:10283c00524900004f4400003f0000004455000086
:10284c00545900000044000055540000593f00004a
:10285c000057000049440000544800000057000095
:10286c0049440000544800003f000000543100006f
:10287c0050450000524900004f4400000054000035
:10288c003150000045520000494f0000443f000009
:10289c00004300004831000047410000494e000051
:1028ac00004300004831000047410000494e000041
:1028bc003f0000004348000032470000414900003f
:1028cc004e00000043480000324700004149000020
:1028dc004e3f0000004900004e54000045520000dd
:1028ec00564100004c000000494e000054450000c9
:1028fc0052560000414c00003f0000004d410000ca
:10290c005841000056470000004d0000415800009f
:10291c0041560000473f0000004e0000554d00009e
:10292c0041560000473f000000530000574500008f
:10293c00455000003f000000545200004947000081
:10294c00474500005200000042550000464600007a
:10295c00455200003f000000425500004646000072
:10296c0045520000424900004e3f00000047000065
:10297c00414900004e00000047410000494e000054
:10298c003f0000005348000041500000450000008b
:10299c005348000041500000453f00000046000035
:1029ac005245000051000000465200004551000005
:1029bc003f0000005048000041530000450000005b
:1029cc005048000041530000453f0000004100000a
:1029dc004d5000004c490000545500004445000087
:1029ec00004100004d5000004c49000054550000bf
:1029fc00444500003f0000004f46000046530000d5
:102a0c0045540000004f00004646000053450000ae
:102a1c00543f00000053000051410000444a0000a4
:102a2c000053000051410000444a00003f000000e8
:102a3c004e53000051410000444a0000004e00007b
:102a4c0053510000414400004a3f00000053000075
:102a5c00544100005254000000530000544f000039
:102a6c00500000004552000041530000450000009a
:102a7c003a2c0000200000004f4e0000004f0000d8
:102a8c0046460000005400004f470000474c000031
:102a9c0045000000310d00000a000000300d000060
:102aac000a0000002c200000000d00000a000000ad
:102abc002c0000004443000000530000494e00006d
:102acc000053000051550000415200004500000029
:102adc0054520000494100004e4700004c45000094
:102aec0000530000494e0000474c00004500000018
:102afc0052450000504500004154000000310000d8
:102b0c002c000000302c000000000000120100001e
:102b1c000002000002000000004000006666000099
:102b2c00dc0c0000000000000102000000010000ad
:102b3c0009020000430000000201000000a0000098
:102b4c003209000004000000000100000202000035
:102b5c00000000000524000000100000010400002b
:102b6c002402000002050000240600000001000001
:102b7c000524000001010000010700000581000090
:102b8c00030a0000004000000904000001000000de
:102b9c00020a00000000000000070000050200000f
:102bac000240000000000000070500008202000047
:102bbc0040000000000000009e950000040300008f
:102bcc00090400001a0300004f0000006c00000014
:102bdc00690000006e0000002000000043000000af
:102bec006f0000006c0000006c000000650000002d
:102bfc006700000065000000360300005000000074
:102c0c0049000000430000003200000034000000c6
:102c1c00460000004a0000003100000032000000b5
:102c2c0038000000470000004300000030000000a6
:102c3c0030000000360000002000000043000000bf
:102c4c00440000004300000020000000440000008d
:102c5c0065000000760000006900000063000000c1
:102c6c0065000000e4950000e89500000296000065
:020000040000fa
:102c7c000000fa00808820002044880000442100d5
:102c8c0030448800ff3ffc000505a8001de5a800a6
:102c9c001dc5a900204480003144800000000000c4
:102cac000000000000000000000000000000000018
:102cbc000000000000000000000000000000000008
:102ccc00000000000000000000000000021a80005c
:102cdc0002187800121a800082187800021a8000fc
:102cec0002187800121a800082187800021a8000ec
:102cfc0002187800121a800082187800021a8000dc
:102d0c0002187800121a800082187800021a8000cb
:102d1c0002187800121a800082187800021a8000bb
:102d2c0002187800121a800082187800021a8000ab
:102d3c0002187800121a800082187800021a80009b
:102d4c0002187800121a800082187800021a80008b
:102d5c0002187800121a800082187800021a80007b
:102d6c0002187800121a800082187800021a80006b
:102d7c0002187800121a800082187800021a80005b
:102d8c0002187800121a800082187800021a80004b
:102d9c0002187800121a800082187800021a80003b
:102dac0002187800121a800082187800021a80002b
:102dbc0002187800121a800082187800021a80001b
:102dcc0002187800121a800082187800021a80000b
:102ddc0002187800121a800082187800021a8000fb
:102dec0002187800121a800082187800021a8000eb
:102dfc0002187800121a800082187800021a8000db
:102e0c0002187800121a800082187800021a8000ca
:102e1c0002187800121a800082187800021a8000ba
:102e2c0002187800121a800082187800021a8000aa
:102e3c0002187800121a800082187800021a80009a
:102e4c0002187800121a800082187800021a80008a
:102e5c0002187800121a800082187800021a80007a
:102e6c0002187800121a800082187800021a80006a
:102e7c0002187800121a800082187800021a80005a
:102e8c0002187800121a800082187800021a80004a
:102e9c0002187800121a800082187800021a80003a
:102eac0002187800121a800082187800021a80002a
:102ebc0002187800121a800082187800021a80001a
:102ecc0002187800121a800082187800021a80000a
:102edc0002187800121a800082187800021a8000fa
:102eec0002187800121a800082187800021a8000ea
:102efc0002187800121a800082187800021a8000da
:102f0c0002187800121a800082187800021a8000c9
:102f1c0002187800121a800082187800021a8000b9
:102f2c0002187800121a800082187800021a8000a9
:102f3c0002187800121a800082187800021a800099
:102f4c0002187800121a800082187800021a800089
:102f5c0002187800121a800082187800021a800079
:102f6c0002187800121a800082187800021a800069
:102f7c0002187800121a800082187800021a800059
:102f8c0002187800121a800082187800021a800049
:102f9c0002187800121a800082187800021a800039
:102fac0002187800121a800082187800021a800029
:102fbc0002187800121a800082187800021a800019
:102fcc0002187800121a800082187800021a800009
:102fdc0002187800121a800082187800021a8000f9
:102fec0002187800121a800082187800021a8000e9
:102ffc0002187800121a800082187800021a8000d9
:10300c0002187800121a800082187800021a8000c8
:10301c0002187800121a800082187800021a8000b8
:10302c0002187800121a800082187800021a8000a8
:10303c0002187800121a800082187800021a800098
:10304c0002187800121a800082187800021a800088
:10305c0002187800121a800082187800021a800078
:10306c0002187800121a800082187800021a800068
:10307c0002187800121a800082187800021a800058
:10308c0002187800121a800082187800021a800048
:10309c0002187800121a800082187800021a800038
:1030ac0002187800121a800082187800021a800028
:1030bc0002187800121a800082187800021a800018
:1030cc0002187800121a800082187800021a800008
:1030dc0002187800121a800082187800021a8000f8
:1030ec0002187800121a800082187800021a8000e8
:1030fc0002187800121a800082187800021a8000d8
:10310c0002187800121a800082187800021a8000c7
:10311c0002187800121a800082187800021a8000b7
:10312c0002187800121a800082187800021a8000a7
:10313c0002187800121a800082187800021a800097
:10314c0002187800121a800082187800021a800087
:10315c0002187800121a800082187800021a800077
:10316c0002187800121a800082187800021a800067
:10317c0002187800121a800082187800021a800057
:10318c0002187800121a800082187800021a800047
:10319c0002187800121a800082187800021a800037
:1031ac0002187800121a800082187800021a800027
:1031bc0002187800121a800082187800021a800017
:1031cc0002187800121a800082187800021a800007
:1031dc0002187800121a800082187800021a8000f7
:1031ec0002187800121a800082187800021a8000e7
:1031fc0002187800121a800082187800021a8000d7
:10320c0002187800121a800082187800021a8000c6
:10321c0002187800121a800082187800021a8000b6
:10322c0002187800121a800082187800021a8000a6
:10323c0002187800121a800082187800021a800096
:10324c0002187800121a800082187800021a800086
:10325c0002187800121a800082187800021a800076
:10326c0002187800121a800082187800021a800066
:10327c0002187800121a800082187800021a800056
:10328c0002187800121a800082187800021a800046
:10329c0002187800121a800082187800021a800036
:1032ac0002187800121a800082187800021a800026
:1032bc0002187800121a800082187800021a800016
:1032cc0002187800121a800082187800021a800006
:1032dc0002187800121a800082187800021a8000f6
:1032ec0002187800121a800082187800021a8000e6
:1032fc0002187800121a800082187800021a8000d6
:10330c0002187800121a800082187800021a8000c5
:10331c0002187800121a800082187800021a8000b5
:10332c0002187800121a800082187800021a8000a5
:10333c0002187800121a800082187800021a800095
:10334c0002187800121a800082187800021a800085
:10335c0002187800121a800082187800021a800075
:10336c0002187800121a800082187800021a800065
:10337c0002187800121a800082187800021a800055
:10338c0002187800121a800082187800021a800045
:10339c0002187800121a800082187800021a800035
:1033ac0002187800121a800082187800021a800025
:1033bc0002187800121a800082187800021a800015
:1033cc0002187800121a800082187800021a800005
:1033dc0002187800121a800082187800021a8000f5
:1033ec0002187800121a800082187800021a8000e5
:1033fc0002187800121a800082187800021a8000d5
:10340c0002187800121a800082187800021a8000c4
:10341c0002187800121a800082187800021a8000b4
:10342c0002187800121a800082187800021a8000a4
:10343c0002187800121a800082187800021a800094
:10344c0002187800121a800082187800021a800084
:10345c0002187800121a800082187800021a800074
:10346c0002187800121a800082187800021a800064
:10347c0002187800121a800082187800021a800054
:10348c0002187800121a800082187800021a800044
:10349c0002187800121a800082187800021a800034
:1034ac0002187800121a800082187800021a800024
:1034bc0002187800121a800082187800021a800014
:1034cc0002187800121a800082187800021a800004
:1034dc0002187800121a800082187800021a8000f4
:1034ec0002187800121a800082187800021a8000e4
:1034fc0002187800121a800082187800021a8000d4
:10350c0002187800121a800082187800021a8000c3
:10351c0002187800121a800082187800021a8000b3
:10352c0002187800121a800082187800021a8000a3
:10353c0002187800121a800082187800021a800093
:10354c0002187800121a800082187800021a800083
:10355c0002187800121a800082187800021a800073
:10356c0002187800121a800082187800021a800063
:10357c0002187800121a800082187800021a800053
:10358c0002187800121a800082187800021a800043
:10359c0002187800121a800082187800021a800033
:1035ac0002187800121a800082187800021a800023
:1035bc0002187800121a800082187800021a800013
:1035cc0002187800121a800082187800021a800003
:1035dc0002187800121a800082187800021a8000f3
:1035ec0002187800121a800082187800021a8000e3
:1035fc0002187800121a800082187800021a8000d3
:10360c0002187800121a800082187800021a8000c2
:10361c0002187800121a800082187800021a8000b2
:10362c0002187800121a800082187800021a8000a2
:10363c0002187800121a800082187800021a800092
:10364c0002187800121a800082187800021a800082
:10365c0002187800121a800082187800021a800072
:10366c0002187800121a800082187800021a800062
:10367c0002187800121a800082187800021a800052
:10368c0002187800121a800082187800021a800042
:10369c0002187800121a800082187800021a800032
:1036ac0002187800121a800082187800021a800022
:1036bc0002187800121a800082187800021a800012
:1036cc0002187800121a800082187800021a800002
:1036dc0002187800121a800082187800021a8000f2
:1036ec0002187800121a800082187800021a8000e2
:1036fc0002187800121a800082187800021a8000d2
:10370c0002187800121a800082187800021a8000c1
:10371c0002187800121a800082187800021a8000b1
:10372c0002187800121a800082187800021a8000a1
:10373c0002187800121a800082187800021a800091
:10374c0002187800121a800082187800021a800081
:10375c0002187800121a800082187800021a800071
:10376c0002187800121a800082187800021a800061
:10377c0002187800121a800082187800021a800051
:10378c0002187800121a800082187800021a800041
:10379c0002187800121a800082187800021a800031
:1037ac0002187800121a800082187800021a800021
:1037bc0002187800121a800082187800021a800011
:1037cc0002187800121a800082187800021a800001
:1037dc0002187800121a800082187800021a8000f1
:1037ec0002187800121a800082187800021a8000e1
:1037fc0002187800121a800082187800021a8000d1
:10380c0002187800121a800082187800021a8000c0
:10381c0002187800121a800082187800021a8000b0
:10382c0002187800121a800082187800021a8000a0
:10383c0002187800121a800082187800021a800090
:10384c0002187800121a800082187800021a800080
:10385c0002187800121a800082187800021a800070
:10386c0002187800121a800082187800021a800060
:10387c0002187800121a800082187800021a800050
:10388c0002187800121a800082187800021a800040
:10389c0002187800121a800082187800021a800030
:1038ac0002187800121a800082187800021a800020
:1038bc0002187800121a800082187800021a800010
:1038cc0002187800121a800082187800021a800000
:1038dc0002187800121a800082187800021a8000f0
:1038ec0002187800121a800082187800021a8000e0
:1038fc0002187800121a800082187800021a8000d0
:10390c0002187800121a800082187800021a8000bf
:10391c0002187800121a800082187800021a8000af
:10392c0002187800121a800082187800021a80009f
:10393c0002187800121a800082187800021a80008f
:10394c0002187800121a800082187800021a80007f
:10395c0002187800121a800082187800021a80006f
:10396c0002187800121a800082187800021a80005f
:10397c0002187800121a800082187800021a80004f
:10398c0002187800121a800082187800021a80003f
:10399c0002187800121a800082187800021a80002f
:1039ac0002187800121a800082187800021a80001f
:1039bc0002187800121a800082187800021a80000f
:1039cc0002187800121a800082187800021a8000ff
:1039dc0002187800121a800082187800021a8000ef
:1039ec0002187800121a800082187800021a8000df
:1039fc0002187800121a800082187800021a8000cf
:103a0c0002187800121a800082187800021a8000be
:103a1c0002187800121a800082187800021a8000ae
:103a2c0002187800121a800082187800021a80009e
:103a3c0002187800121a800082187800021a80008e
:103a4c0002187800121a800082187800021a80007e
:103a5c0002187800121a800082187800021a80006e
:103a6c0002187800121a800082187800021a80005e
:103a7c0002187800121a800082187800021a80004e
:103a8c0002187800121a800082187800021a80003e
:103a9c0002187800121a800082187800021a80002e
:103aac0002187800121a800082187800021a80001e
:103abc0002187800121a800082187800021a80000e
:103acc0002187800121a800082187800021a8000fe
:103adc0002187800121a800082187800021a8000ee
:103aec0002187800121a800082187800021a8000de
:103afc0002187800121a800082187800021a8000ce
:103b0c0002187800121a800082187800021a8000bd
:103b1c0002187800121a800082187800021a8000ad
:103b2c0002187800121a800082187800021a80009d
:103b3c0002187800121a800082187800021a80008d
:103b4c0002187800121a800082187800021a80007d
:103b5c0002187800121a800082187800021a80006d
:103b6c0002187800121a800082187800021a80005d
:103b7c0002187800121a800082187800021a80004d
:103b8c0002187800121a800082187800021a80003d
:103b9c0002187800121a800082187800021a80002d
:103bac0002187800121a800082187800021a80001d
:103bbc0002187800121a800082187800021a80000d
:103bcc0002187800121a800082187800021a8000fd
:103bdc0002187800121a800082187800021a8000ed
:103bec0002187800121a800082187800021a8000dd
:103bfc0002187800121a800082187800021a8000cd
:103c0c0002187800121a800082187800021a8000bc
:103c1c0002187800121a800082187800021a8000ac
:103c2c0002187800121a800082187800021a80009c
:103c3c0002187800121a800082187800021a80008c
:103c4c0002187800121a800082187800021a80007c
:103c5c0002187800121a800082187800021a80006c
:103c6c0002187800121a800082187800021a80005c
:103c7c0002187800121a800082187800021a80004c
:103c8c0002187800121a800082187800021a80003c
:103c9c0002187800121a800082187800021a80002c
:103cac0002187800121a800082187800021a80001c
:103cbc0002187800121a800082187800021a80000c
:103ccc0002187800121a800082187800021a8000fc
:103cdc0002187800121a800082187800021a8000ec
:103cec0002187800121a800082187800021a8000dc
:103cfc0002187800121a800082187800021a8000cc
:103d0c0002187800121a800082187800021a8000bb
:103d1c0002187800121a800082187800021a8000ab
:103d2c0002187800121a800082187800021a80009b
:103d3c0002187800121a800082187800021a80008b
:103d4c0002187800121a800082187800021a80007b
:103d5c0002187800121a800082187800021a80006b
:103d6c0002187800121a800082187800021a80005b
:103d7c0002187800121a800082187800021a80004b
:103d8c0002187800121a800082187800021a80003b
:103d9c0002187800121a800082187800021a80002b
:103dac0002187800121a800082187800021a80001b
:103dbc0002187800121a800082187800021a80000b
:103dcc0002187800121a800082187800021a8000fb
:103ddc0002187800121a800082187800021a8000eb
:103dec0002187800121a800082187800021a8000db
:103dfc0002187800121a800082187800021a8000cb
:103e0c0002187800121a800082187800021a8000ba
:103e1c0002187800121a800082187800021a8000aa
:103e2c0002187800121a800082187800021a80009a
:103e3c0002187800121a800082187800021a80008a
:103e4c0002187800121a800082187800021a80007a
:103e5c0002187800121a800082187800021a80006a
:103e6c0002187800121a800082187800021a80005a
:103e7c0002187800121a800082187800021a80004a
:103e8c0002187800121a800082187800021a80003a
:103e9c0002187800121a800082187800021a80002a
:103eac0002187800121a800082187800021a80001a
:103ebc0002187800121a800082187800021a80000a
:103ecc0002187800121a800082187800021a8000fa
:103edc0002187800121a800082187800021a8000ea
:103eec0002187800121a800082187800021a8000da
:103efc0002187800121a800082187800021a8000ca
:103f0c0002187800121a800082187800021a8000b9
:103f1c0002187800121a800082187800021a8000a9
:103f2c0002187800121a800082187800021a800099
:103f3c0002187800121a800082187800021a800089
:103f4c0002187800121a800082187800021a800079
:103f5c0002187800121a800082187800021a800069
:103f6c0002187800121a800082187800021a800059
:103f7c0002187800121a800082187800021a800049
:103f8c0002187800121a800082187800021a800039
:103f9c0002187800121a800082187800021a800029
:103fac0002187800121a800082187800021a800019
:103fbc0002187800121a800082187800021a800009
:103fcc0002187800121a800082187800021a8000f9
:103fdc0002187800121a800082187800021a8000e9
:103fec0002187800121a800082187800021a8000d9
:103ffc0002187800121a800082187800021a8000c9
:10400c0002187800121a800082187800021a8000b8
:10401c0002187800121a800082187800021a8000a8
:10402c0002187800121a800082187800021a800098
:10403c0002187800121a800082187800021a800088
:10404c0002187800121a800082187800021a800078
:10405c0002187800121a800082187800021a800068
:10406c0002187800121a800082187800021a800058
:10407c0002187800121a800082187800021a800048
:10408c0002187800121a800082187800021a800038
:10409c0002187800121a800082187800021a800028
:1040ac0002187800121a800082187800021a800018
:1040bc0002187800121a800082187800021a800008
:1040cc0002187800121a800082187800021a8000f8
:1040dc0002187800121a800082187800021a8000e8
:1040ec0002187800121a800082187800021a8000d8
:1040fc0002187800121a800082187800021a8000c8
:10410c0002187800121a800082187800021a8000b7
:10411c0002187800121a800082187800021a8000a7
:10412c0002187800121a800082187800021a800097
:10413c0002187800121a800082187800021a800087
:10414c0002187800121a800082187800021a800077
:10415c0002187800121a800082187800021a800067
:10416c0002187800121a800082187800021a800057
:10417c0002187800121a800082187800021a800047
:10418c0002187800121a800082187800021a800037
:10419c0002187800121a800082187800021a800027
:1041ac0002187800121a800082187800021a800017
:1041bc0002187800121a800082187800021a800007
:1041cc0002187800121a800082187800021a8000f7
:1041dc0002187800121a800082187800021a8000e7
:1041ec0002187800121a800082187800021a8000d7
:1041fc0002187800121a800082187800021a8000c7
:10420c0002187800121a800082187800021a8000b6
:10421c0002187800121a800082187800021a8000a6
:10422c0002187800121a800082187800021a800096
:10423c0002187800121a800082187800021a800086
:10424c0002187800121a800082187800021a800076
:10425c0002187800121a800082187800021a800066
:10426c0002187800121a800082187800021a800056
:10427c0002187800121a800082187800021a800046
:10428c0002187800121a800082187800021a800036
:10429c0002187800121a800082187800021a800026
:1042ac0002187800121a800082187800021a800016
:1042bc0002187800121a800082187800021a800006
:1042cc0002187800121a800082187800021a8000f6
:1042dc0002187800121a800082187800021a8000e6
:1042ec0002187800121a800082187800021a8000d6
:1042fc0002187800121a800082187800021a8000c6
:10430c0002187800121a800082187800021a8000b5
:10431c0002187800121a800082187800021a8000a5
:10432c0002187800121a800082187800021a800095
:10433c0002187800121a800082187800021a800085
:10434c0002187800121a800082187800021a800075
:10435c0002187800121a800082187800021a800065
:10436c0002187800121a800082187800021a800055
:10437c0002187800121a800082187800021a800045
:10438c0002187800121a800082187800021a800035
:10439c0002187800121a800082187800021a800025
:1043ac0002187800121a800082187800021a800015
:1043bc0002187800121a800082187800021a800005
:1043cc0002187800121a800082187800021a8000f5
:1043dc0002187800121a800082187800021a8000e5
:1043ec0002187800121a800082187800021a8000d5
:1043fc0002187800121a800082187800021a8000c5
:10440c0002187800121a800082187800021a8000b4
:10441c0002187800121a800082187800021a8000a4
:10442c0002187800121a800082187800021a800094
:10443c0002187800121a800082187800021a800084
:10444c0002187800121a800082187800021a800074
:10445c0002187800121a800082187800021a800064
:10446c0002187800121a800082187800021a800054
:10447c0002187800121a800082187800021a800044
:10448c0002187800121a800082187800021a800034
:10449c0002187800121a800082187800021a800024
:1044ac0002187800121a800082187800021a800014
:1044bc0002187800121a800082187800021a800004
:1044cc0002187800121a800082187800021a8000f4
:1044dc0002187800121a800082187800021a8000e4
:1044ec0002187800121a800082187800021a8000d4
:1044fc0002187800121a800082187800021a8000c4
:10450c0002187800121a800082187800021a8000b3
:10451c0002187800121a800082187800021a8000a3
:10452c0002187800121a800082187800021a800093
:10453c0002187800121a800082187800021a800083
:10454c0002187800121a800082187800021a800073
:10455c0002187800121a800082187800021a800063
:10456c0002187800121a800082187800021a800053
:10457c0002187800121a800082187800021a800043
:10458c0002187800121a800082187800021a800033
:10459c0002187800121a800082187800021a800023
:1045ac0002187800121a800082187800021a800013
:1045bc0002187800121a800082187800021a800003
:1045cc0002187800121a800082187800021a8000f3
:1045dc0002187800121a800082187800021a8000e3
:1045ec0002187800121a800082187800021a8000d3
:1045fc0002187800121a800082187800021a8000c3
:10460c0002187800121a800082187800021a8000b2
:10461c0002187800121a800082187800021a8000a2
:10462c0002187800121a800082187800021a800092
:10463c0002187800121a800082187800021a800082
:10464c0002187800121a800082187800021a800072
:10465c0002187800121a800082187800021a800062
:10466c0002187800121a800082187800021a800052
:10467c0002187800121a800082187800021a800042
:10468c0002187800121a800082187800021a800032
:10469c0002187800121a800082187800021a800022
:1046ac0002187800121a800082187800021a800012
:1046bc0002187800121a800082187800021a800002
:1046cc0002187800121a800082187800021a8000f2
:1046dc0002187800121a800082187800021a8000e2
:1046ec0002187800121a800082187800021a8000d2
:1046fc0002187800121a800082187800021a8000c2
:10470c0002187800121a800082187800021a8000b1
:10471c0002187800121a800082187800021a8000a1
:10472c0002187800121a800082187800021a800091
:10473c0002187800121a800082187800021a800081
:10474c0002187800121a800082187800021a800071
:10475c0002187800121a800082187800021a800061
:10476c0002187800121a800082187800021a800051
:10477c0002187800121a800082187800021a800041
:10478c0002187800121a800082187800021a800031
:10479c0002187800121a800082187800021a800021
:1047ac0002187800121a800082187800021a800011
:1047bc0002187800121a800082187800021a800001
:1047cc0002187800121a800082187800021a8000f1
:1047dc0002187800121a800082187800021a8000e1
:1047ec0002187800121a800082187800021a8000d1
:1047fc0002187800121a800082187800021a8000c1
:10480c0002187800121a800082187800021a8000b0
:10481c0002187800121a800082187800021a8000a0
:10482c0002187800121a800082187800021a800090
:10483c0002187800121a800082187800021a800080
:10484c0002187800121a800082187800021a800070
:10485c0002187800121a800082187800021a800060
:10486c0002187800121a800082187800021a800050
:10487c0002187800121a800082187800021a800040
:10488c0002187800121a800082187800021a800030
:10489c0002187800121a800082187800021a800020
:1048ac0002187800121a800082187800021a800010
:1048bc0002187800121a800082187800021a800000
:1048cc0002187800121a800082187800021a8000f0
:1048dc0002187800121a800082187800021a8000e0
:1048ec0002187800121a800082187800021a8000d0
:1048fc0002187800121a800082187800021a8000c0
:10490c0002187800121a800082187800021a8000af
:10491c0002187800121a800082187800021a80009f
:10492c0002187800121a800082187800021a80008f
:10493c0002187800121a800082187800021a80007f
:10494c0002187800121a800082187800021a80006f
:10495c0002187800121a800082187800021a80005f
:10496c0002187800121a800082187800021a80004f
:10497c0002187800121a800082187800021a80003f
:10498c0002187800121a800082187800021a80002f
:10499c0002187800121a800082187800021a80001f
:1049ac0002187800121a800082187800021a80000f
:1049bc0002187800121a800082187800021a8000ff
:1049cc0002187800121a800082187800021a8000ef
:1049dc0002187800121a800082187800021a8000df
:1049ec0002187800121a800082187800021a8000cf
:1049fc0002187800121a800082187800021a8000bf
:104a0c0002187800121a800082187800021a8000ae
:104a1c0002187800121a800082187800021a80009e
:104a2c0002187800121a800082187800021a80008e
:104a3c0002187800121a800082187800021a80007e
:104a4c0002187800121a800082187800021a80006e
:104a5c0002187800121a800082187800021a80005e
:104a6c0002187800121a800082187800021a80004e
:104a7c0002187800121a800082187800021a80003e
:104a8c0002187800121a800082187800021a80002e
:104a9c0002187800121a800082187800021a80001e
:104aac0002187800121a800082187800021a80000e
:104abc0002187800121a800082187800021a8000fe
:104acc0002187800121a800082187800021a8000ee
:104adc0002187800121a800082187800021a8000de
:104aec0002187800121a800082187800021a8000ce
:104afc0002187800121a800082187800021a8000be
:104b0c0002187800121a800082187800021a8000ad
:104b1c0002187800121a800082187800021a80009d
:104b2c0002187800121a800082187800021a80008d
:104b3c0002187800121a800082187800021a80007d
:104b4c0002187800121a800082187800021a80006d
:104b5c0002187800121a800082187800021a80005d
:104b6c0002187800121a800082187800021a80004d
:104b7c0002187800121a800082187800021a80003d
:104b8c0002187800121a800082187800021a80002d
:104b9c0002187800121a800082187800021a80001d
:104bac0002187800121a800082187800021a80000d
:104bbc0002187800121a800082187800021a8000fd
:104bcc0002187800121a800082187800021a8000ed
:104bdc0002187800121a800082187800021a8000dd
:104bec0002187800121a800082187800021a8000cd
:104bfc0002187800121a800082187800021a8000bd
:104c0c0002187800121a800082187800021a8000ac
:104c1c0002187800121a800082187800021a80009c
:104c2c0002187800121a800082187800021a80008c
:104c3c0002187800121a800082187800021a80007c
:104c4c0002187800121a800082187800021a80006c
:104c5c0002187800121a800082187800021a80005c
:104c6c0002187800121a800082187800021a80004c
:104c7c0002187800121a800082187800021a80003c
:104c8c0002187800121a800082187800021a80002c
:104c9c0002187800121a800082187800021a80001c
:104cac0002187800121a800082187800021a80000c
:104cbc0002187800121a800082187800021a8000fc
:104ccc0002187800121a800082187800021a8000ec
:104cdc0002187800121a800082187800021a8000dc
:104cec0002187800121a800082187800021a8000cc
:104cfc0002187800121a800082187800021a8000bc
:104d0c0002187800121a800082187800021a8000ab
:104d1c0002187800121a800082187800021a80009b
:104d2c0002187800121a800082187800021a80008b
:104d3c0002187800121a800082187800021a80007b
:104d4c0002187800121a800082187800021a80006b
:104d5c0002187800121a800082187800021a80005b
:104d6c0002187800121a800082187800021a80004b
:104d7c0002187800121a800082187800021a80003b
:104d8c0002187800121a800082187800021a80002b
:104d9c0002187800121a800082187800021a80001b
:104dac0002187800121a800082187800021a80000b
:104dbc0002187800121a800082187800021a8000fb
:104dcc0002187800121a800082187800021a8000eb
:104ddc0002187800121a800082187800021a8000db
:104dec0002187800121a800082187800021a8000cb
:104dfc0002187800121a800082187800021a8000bb
:104e0c0002187800121a800082187800021a8000aa
:104e1c0002187800121a800082187800021a80009a
:104e2c0002187800121a800082187800021a80008a
:104e3c0002187800121a800082187800021a80007a
:104e4c0002187800121a800082187800021a80006a
:104e5c0002187800121a800082187800021a80005a
:104e6c0002187800121a800082187800021a80004a
:104e7c0002187800121a800082187800021a80003a
:104e8c0002187800121a800082187800021a80002a
:104e9c0002187800121a800082187800021a80001a
:104eac0002187800121a800082187800021a80000a
:104ebc0002187800121a800082187800021a8000fa
:104ecc0002187800121a800082187800021a8000ea
:104edc0002187800121a800082187800021a8000da
:104eec0002187800121a800082187800021a8000ca
:104efc0002187800121a800082187800021a8000ba
:104f0c0002187800121a800082187800021a8000a9
:104f1c0002187800121a800082187800021a800099
:104f2c0002187800121a800082187800021a800089
:104f3c0002187800121a800082187800021a800079
:104f4c0002187800121a800082187800021a800069
:104f5c0002187800121a800082187800021a800059
:104f6c0002187800121a800082187800021a800049
:104f7c0002187800121a800082187800021a800039
:104f8c0002187800121a800082187800021a800029
:104f9c0002187800121a800082187800021a800019
:104fac0002187800121a800082187800021a800009
:104fbc0002187800121a800082187800021a8000f9
:104fcc0002187800121a800082187800021a8000e9
:104fdc0002187800121a800082187800021a8000d9
:104fec0002187800121a800082187800021a8000c9
:104ffc0002187800121a800082187800021a8000b9
:10500c0002187800121a800082187800021a8000a8
:10501c0002187800121a800082187800021a800098
:10502c0002187800121a800082187800021a800088
:10503c0002187800121a800082187800021a800078
:10504c0002187800121a800082187800021a800068
:10505c0002187800121a800082187800021a800058
:10506c0002187800121a800082187800021a800048
:10507c0002187800121a800082187800021a800038
:10508c0002187800121a800082187800021a800028
:10509c0002187800121a800082187800021a800018
:1050ac0002187800121a800082187800021a800008
:1050bc0002187800121a800082187800021a8000f8
:1050cc0002187800121a800082187800021a8000e8
:1050dc0002187800121a800082187800021a8000d8
:1050ec0002187800121a800082187800021a8000c8
:1050fc0002187800121a800082187800021a8000b8
:10510c0002187800121a800082187800021a8000a7
:10511c0002187800121a800082187800021a800097
:10512c0002187800121a800082187800021a800087
:10513c0002187800121a800082187800021a800077
:10514c0002187800121a800082187800021a800067
:10515c0002187800121a800082187800021a800057
:10516c0002187800121a800082187800021a800047
:10517c0002187800121a800082187800021a800037
:10518c0002187800121a800082187800021a800027
:10519c0002187800121a800082187800021a800017
:1051ac0002187800121a800082187800021a800007
:1051bc0002187800121a800082187800021a8000f7
:1051cc0002187800121a800082187800021a8000e7
:1051dc0002187800121a800082187800021a8000d7
:1051ec0002187800121a800082187800021a8000c7
:1051fc0002187800121a800082187800021a8000b7
:10520c0002187800121a800082187800021a8000a6
:10521c0002187800121a800082187800021a800096
:10522c0002187800121a800082187800021a800086
:10523c0002187800121a800082187800021a800076
:10524c0002187800121a800082187800021a800066
:10525c0002187800121a800082187800021a800056
:10526c0002187800121a800082187800021a800046
:10527c0002187800121a800082187800021a800036
:10528c0002187800121a800082187800021a800026
:10529c0002187800121a800082187800021a800016
:1052ac0002187800121a800082187800021a800006
:1052bc0002187800121a800082187800021a8000f6
:1052cc0002187800121a800082187800021a8000e6
:1052dc0002187800121a800082187800021a8000d6
:1052ec0002187800121a800082187800021a8000c6
:1052fc0002187800121a800082187800021a8000b6
:10530c0002187800121a800082187800021a8000a5
:10531c0002187800121a800082187800021a800095
:10532c0002187800121a800082187800021a800085
:10533c0002187800121a800082187800021a800075
:10534c0002187800121a800082187800021a800065
:10535c0002187800121a800082187800021a800055
:10536c0002187800121a800082187800021a800045
:10537c0002187800121a800082187800021a800035
:10538c0002187800121a800082187800021a800025
:10539c0002187800121a800082187800021a800015
:1053ac0002187800121a800082187800021a800005
:1053bc0002187800121a800082187800021a8000f5
:1053cc0002187800121a800082187800021a8000e5
:1053dc0002187800121a800082187800021a8000d5
:1053ec0002187800121a800082187800021a8000c5
:1053fc0002187800121a800082187800021a8000b5
:10540c0002187800121a800082187800021a8000a4
:10541c0002187800121a800082187800021a800094
:10542c0002187800121a800082187800021a800084
:10543c0002187800121a800082187800021a800074
:10544c0002187800121a800082187800021a800064
:10545c0002187800121a800082187800021a800054
:10546c0002187800121a800082187800021a800044
:10547c0002187800121a800082187800021a800034
:10548c0002187800121a800082187800021a800024
:10549c0002187800121a800082187800021a800014
:1054ac0002187800121a800082187800021a800004
:1054bc0002187800121a800082187800021a8000f4
:1054cc0002187800121a800082187800021a8000e4
:1054dc0002187800121a800082187800021a8000d4
:1054ec0002187800121a800082187800021a8000c4
:1054fc0002187800121a800082187800021a8000b4
:10550c0002187800121a800082187800021a8000a3
:10551c0002187800121a800082187800021a800093
:10552c0002187800121a800082187800021a800083
:10553c0002187800121a800082187800021a800073
:10554c0002187800121a800082187800021a800063
:10555c0002187800121a800082187800021a800053
:10556c0002187800121a800082187800021a800043
:10557c0002187800121a800082187800021a800033
:10558c0002187800121a800082187800021a800023
:10559c0002187800121a800082187800021a800013
:1055ac0002187800121a800082187800021a800003
:1055bc0002187800121a800082187800021a8000f3
:1055cc0002187800121a800082187800021a8000e3
:1055dc0002187800121a800082187800021a8000d3
:1055ec0002187800121a800082187800021a8000c3
:1055fc0002187800121a800082187800021a8000b3
:10560c0002187800121a800082187800021a8000a2
:10561c0002187800121a800082187800021a800092
:10562c0002187800121a800082187800021a800082
:10563c0002187800121a800082187800021a800072
:10564c0002187800121a800082187800021a800062
:10565c0002187800121a800082187800021a800052
:10566c0002187800121a800082187800021a800042
:10567c0002187800121a800082187800021a800032
:10568c0002187800121a800082187800021a800022
:10569c0002187800121a800082187800021a800012
:1056ac0002187800121a800082187800021a800002
:1056bc0002187800121a800082187800021a8000f2
:1056cc0002187800121a800082187800021a8000e2
:1056dc0002187800121a800082187800021a8000d2
:1056ec0002187800121a800082187800021a8000c2
:1056fc0002187800121a800082187800021a8000b2
:10570c0002187800121a800082187800021a8000a1
:10571c0002187800121a800082187800021a800091
:10572c0002187800121a800082187800021a800081
:10573c0002187800121a800082187800021a800071
:10574c0002187800121a800082187800021a800061
:10575c0002187800121a800082187800021a800051
:10576c0002187800121a800082187800021a800041
:10577c0002187800121a800082187800021a800031
:10578c0002187800121a800082187800021a800021
:10579c0002187800121a800082187800021a800011
:1057ac0002187800121a800082187800021a800001
:1057bc0002187800121a800082187800021a8000f1
:1057cc0002187800121a800082187800021a8000e1
:1057dc0002187800121a800082187800021a8000d1
:1057ec0002187800121a800082187800021a8000c1
:1057fc0002187800121a800082187800021a8000b1
:10580c0002187800121a800082187800021a8000a0
:10581c0002187800121a800082187800021a800090
:10582c0002187800121a800082187800021a800080
:10583c0002187800121a800082187800021a800070
:10584c0002187800121a800082187800021a800060
:10585c0002187800121a800082187800021a800050
:10586c0002187800121a800082187800021a800040
:10587c0002187800121a800082187800021a800030
:10588c0002187800121a800082187800021a800020
:10589c0002187800121a800082187800021a800010
:1058ac0002187800121a800082187800021a800000
:1058bc0002187800121a800082187800021a8000f0
:1058cc0002187800121a800082187800021a8000e0
:1058dc0002187800121a800082187800021a8000d0
:1058ec0002187800121a800082187800021a8000c0
:1058fc0002187800121a800082187800021a8000b0
:10590c0002187800121a800082187800021a80009f
:10591c0002187800121a800082187800021a80008f
:10592c0002187800121a800082187800021a80007f
:10593c0002187800121a800082187800021a80006f
:10594c0002187800121a800082187800021a80005f
:10595c0002187800121a800082187800021a80004f
:10596c0002187800121a800082187800021a80003f
:10597c0002187800121a800082187800021a80002f
:10598c0002187800121a800082187800021a80001f
:10599c0002187800121a800082187800021a80000f
:1059ac0002187800121a800082187800021a8000ff
:1059bc0002187800121a800082187800021a8000ef
:1059cc0002187800121a800082187800021a8000df
:1059dc0002187800121a800082187800021a8000cf
:1059ec0002187800121a800082187800021a8000bf
:1059fc0002187800121a800082187800021a8000af
:105a0c0002187800121a800082187800021a80009e
:105a1c0002187800121a800082187800021a80008e
:105a2c0002187800121a800082187800021a80007e
:105a3c0002187800121a800082187800021a80006e
:105a4c0002187800121a800082187800021a80005e
:105a5c0002187800121a800082187800021a80004e
:105a6c0002187800121a800082187800021a80003e
:105a7c0002187800121a800082187800021a80002e
:105a8c0002187800121a800082187800021a80001e
:105a9c0002187800121a800082187800021a80000e
:105aac0002187800121a800082187800021a8000fe
:105abc0002187800121a800082187800021a8000ee
:105acc0002187800121a800082187800021a8000de
:105adc0002187800121a800082187800021a8000ce
:105aec0002187800121a800082187800021a8000be
:105afc0002187800121a800082187800021a8000ae
:105b0c0002187800121a800082187800021a80009d
:105b1c0002187800121a800082187800021a80008d
:105b2c0002187800121a800082187800021a80007d
:105b3c0002187800121a800082187800021a80006d
:105b4c0002187800121a800082187800021a80005d
:105b5c0002187800121a800082187800021a80004d
:105b6c0002187800121a800082187800021a80003d
:105b7c0002187800121a800082187800021a80002d
:105b8c0002187800121a800082187800021a80001d
:105b9c0002187800121a800082187800021a80000d
:105bac0002187800121a800082187800021a8000fd
:105bbc0002187800121a800082187800021a8000ed
:105bcc0002187800121a800082187800021a8000dd
:105bdc0002187800121a800082187800021a8000cd
:105bec0002187800121a800082187800021a8000bd
:105bfc0002187800121a800082187800021a8000ad
:105c0c0002187800121a800082187800021a80009c
:105c1c0002187800121a800082187800021a80008c
:105c2c0002187800121a800082187800021a80007c
:105c3c0002187800121a800082187800021a80006c
:105c4c0002187800121a800082187800021a80005c
:105c5c0002187800121a800082187800021a80004c
:105c6c0002187800121a800082187800021a80003c
:105c7c0002187800121a800082187800021a80002c
:105c8c0002187800121a800082187800021a80001c
:105c9c0002187800121a800082187800021a80000c
:105cac0002187800121a800082187800021a8000fc
:105cbc0002187800121a800082187800021a8000ec
:105ccc0002187800121a800082187800021a8000dc
:105cdc0002187800121a800082187800021a8000cc
:105cec0002187800121a800082187800021a8000bc
:105cfc0002187800121a800082187800021a8000ac
:105d0c0002187800121a800082187800021a80009b
:105d1c0002187800121a800082187800021a80008b
:105d2c0002187800121a800082187800021a80007b
:105d3c0002187800121a800082187800021a80006b
:105d4c0002187800121a800082187800021a80005b
:105d5c0002187800121a800082187800021a80004b
:105d6c0002187800121a800082187800021a80003b
:105d7c0002187800121a800082187800021a80002b
:105d8c0002187800121a800082187800021a80001b
:105d9c0002187800121a800082187800021a80000b
:105dac0002187800121a800082187800021a8000fb
:105dbc0002187800121a800082187800021a8000eb
:105dcc0002187800121a800082187800021a8000db
:105ddc0002187800121a800082187800021a8000cb
:105dec0002187800121a800082187800021a8000bb
:105dfc0002187800121a800082187800021a8000ab
:105e0c0002187800121a800082187800021a80009a
:105e1c0002187800121a800082187800021a80008a
:105e2c0002187800121a800082187800021a80007a
:105e3c0002187800121a800082187800021a80006a
:105e4c0002187800121a800082187800021a80005a
:105e5c0002187800121a800082187800021a80004a
:105e6c0002187800121a800082187800021a80003a
:105e7c0002187800121a800082187800021a80002a
:105e8c0002187800121a800082187800021a80001a
:105e9c0002187800121a800082187800021a80000a
:105eac0002187800121a800082187800021a8000fa
:105ebc0002187800121a800082187800021a8000ea
:105ecc0002187800121a800082187800021a8000da
:105edc0002187800121a800082187800021a8000ca
:105eec0002187800121a800082187800021a8000ba
:105efc0002187800121a800082187800021a8000aa
:105f0c0002187800121a800082187800021a800099
:105f1c0002187800121a800082187800021a800089
:105f2c0002187800121a800082187800021a800079
:105f3c0002187800121a800082187800021a800069
:105f4c0002187800121a800082187800021a800059
:105f5c0002187800121a800082187800021a800049
:105f6c0002187800121a800082187800021a800039
:105f7c0002187800121a800082187800021a800029
:105f8c0002187800121a800082187800021a800019
:105f9c0002187800121a800082187800021a800009
:105fac0002187800121a800082187800021a8000f9
:105fbc0002187800121a800082187800021a8000e9
:105fcc0002187800121a800082187800021a8000d9
:105fdc0002187800121a800082187800021a8000c9
:105fec0002187800121a800082187800021a8000b9
:105ffc0002187800121a800082187800021a8000a9
:10600c0002187800121a800082187800021a800098
:10601c0002187800121a800082187800021a800088
:10602c0002187800121a800082187800021a800078
:10603c0002187800121a800082187800021a800068
:10604c0002187800121a800082187800021a800058
:10605c0002187800121a800082187800021a800048
:10606c0002187800121a800082187800021a800038
:10607c0002187800121a800082187800021a800028
:10608c0002187800121a800082187800021a800018
:10609c0002187800121a800082187800021a800008
:1060ac0002187800121a800082187800021a8000f8
:1060bc0002187800121a800082187800021a8000e8
:1060cc0002187800121a800082187800021a8000d8
:1060dc0002187800121a800082187800021a8000c8
:1060ec0002187800121a800082187800021a8000b8
:1060fc0002187800121a800082187800021a8000a8
:10610c0002187800121a800082187800021a800097
:10611c0002187800121a800082187800021a800087
:10612c0002187800121a800082187800021a800077
:10613c0002187800121a800082187800021a800067
:10614c0002187800121a800082187800021a800057
:10615c0002187800121a800082187800021a800047
:10616c0002187800121a800082187800021a800037
:10617c0002187800121a800082187800021a800027
:10618c0002187800121a800082187800021a800017
:10619c0002187800121a800082187800021a800007
:1061ac0002187800121a800082187800021a8000f7
:1061bc0002187800121a800082187800021a8000e7
:1061cc0002187800121a800082187800021a8000d7
:1061dc0002187800121a800082187800021a8000c7
:1061ec0002187800121a800082187800021a8000b7
:1061fc0002187800121a800082187800021a8000a7
:10620c0002187800121a800082187800021a800096
:10621c0002187800121a800082187800021a800086
:10622c0002187800121a800082187800021a800076
:10623c0002187800121a800082187800021a800066
:10624c0002187800121a800082187800021a800056
:10625c0002187800121a800082187800021a800046
:10626c0002187800121a800082187800021a800036
:10627c0002187800121a800082187800021a800026
:10628c0002187800121a800082187800021a800016
:10629c0002187800121a800082187800021a800006
:1062ac0002187800121a800082187800021a8000f6
:1062bc0002187800121a800082187800021a8000e6
:1062cc0002187800121a800082187800021a8000d6
:1062dc0002187800121a800082187800021a8000c6
:1062ec0002187800121a800082187800021a8000b6
:1062fc0002187800121a800082187800021a8000a6
:10630c0002187800121a800082187800021a800095
:10631c0002187800121a800082187800021a800085
:10632c0002187800121a800082187800021a800075
:10633c0002187800121a800082187800021a800065
:10634c0002187800121a800082187800021a800055
:10635c0002187800121a800082187800021a800045
:10636c0002187800121a800082187800021a800035
:10637c0002187800121a800082187800021a800025
:10638c0002187800121a800082187800021a800015
:10639c0002187800121a800082187800021a800005
:1063ac0002187800121a800082187800021a8000f5
:1063bc0002187800121a800082187800021a8000e5
:1063cc0002187800121a800082187800021a8000d5
:1063dc0002187800121a800082187800021a8000c5
:1063ec0002187800121a800082187800021a8000b5
:1063fc0002187800121a800082187800021a8000a5
:10640c0002187800121a800082187800021a800094
:10641c0002187800121a800082187800021a800084
:10642c0002187800121a800082187800021a800074
:10643c0002187800121a800082187800021a800064
:10644c0002187800121a800082187800021a800054
:10645c0002187800121a800082187800021a800044
:10646c0002187800121a800082187800021a800034
:10647c0002187800121a800082187800021a800024
:10648c0002187800121a800082187800021a800014
:10649c0002187800121a800082187800021a800004
:1064ac0002187800121a800082187800021a8000f4
:1064bc0002187800121a800082187800021a8000e4
:1064cc0002187800121a800082187800021a8000d4
:1064dc0002187800121a800082187800021a8000c4
:1064ec0002187800121a800082187800021a8000b4
:1064fc0002187800121a800082187800021a8000a4
:10650c0002187800121a800082187800021a800093
:10651c0002187800121a800082187800021a800083
:10652c0002187800121a800082187800021a800073
:10653c0002187800121a800082187800021a800063
:10654c0002187800121a800082187800021a800053
:10655c0002187800121a800082187800021a800043
:10656c0002187800121a800082187800021a800033
:10657c0002187800121a800082187800021a800023
:10658c0002187800121a800082187800021a800013
:10659c0002187800121a800082187800021a800003
:1065ac0002187800121a800082187800021a8000f3
:1065bc0002187800121a800082187800021a8000e3
:1065cc0002187800121a800082187800021a8000d3
:1065dc0002187800121a800082187800021a8000c3
:1065ec0002187800121a800082187800021a8000b3
:1065fc0002187800121a800082187800021a8000a3
:10660c0002187800121a800082187800021a800092
:10661c0002187800121a800082187800021a800082
:10662c0002187800121a800082187800021a800072
:10663c0002187800121a800082187800021a800062
:10664c0002187800121a800082187800021a800052
:10665c0002187800121a800082187800021a800042
:10666c0002187800121a800082187800021a800032
:10667c0002187800121a800082187800021a800022
:10668c0002187800121a800082187800021a800012
:10669c0002187800121a800082187800021a800002
:1066ac0002187800121a800082187800021a8000f2
:1066bc0002187800121a800082187800021a8000e2
:1066cc0002187800121a800082187800021a8000d2
:1066dc0002187800121a800082187800021a8000c2
:1066ec0002187800121a800082187800021a8000b2
:1066fc0002187800121a800082187800021a8000a2
:10670c0002187800121a800082187800021a800091
:10671c0002187800121a800082187800021a800081
:10672c0002187800121a800082187800021a800071
:10673c0002187800121a800082187800021a800061
:10674c0002187800121a800082187800021a800051
:10675c0002187800121a800082187800021a800041
:10676c0002187800121a800082187800021a800031
:10677c0002187800121a800082187800021a800021
:10678c0002187800121a800082187800021a800011
:10679c0002187800121a800082187800021a800001
:1067ac0002187800121a800082187800021a8000f1
:1067bc0002187800121a800082187800021a8000e1
:1067cc0002187800121a800082187800021a8000d1
:1067dc0002187800121a800082187800021a8000c1
:1067ec0002187800121a800082187800021a8000b1
:1067fc0002187800121a800082187800021a8000a1
:10680c0002187800121a800082187800021a800090
:10681c0002187800121a800082187800021a800080
:10682c0002187800121a800082187800021a800070
:10683c0002187800121a800082187800021a800060
:10684c0002187800121a800082187800021a800050
:10685c0002187800121a800082187800021a800040
:10686c0002187800121a800082187800021a800030
:10687c0002187800121a800082187800021a800020
:10688c0002187800121a800082187800021a800010
:10689c0002187800121a800082187800021a800000
:1068ac0002187800121a800082187800021a8000f0
:1068bc0002187800121a800082187800021a8000e0
:1068cc0002187800121a800082187800021a8000d0
:1068dc0002187800121a800082187800021a8000c0
:1068ec0002187800121a800082187800021a8000b0
:1068fc0002187800121a800082187800021a8000a0
:10690c0002187800121a800082187800021a80008f
:10691c0002187800121a800082187800021a80007f
:10692c0002187800121a800082187800021a80006f
:10693c0002187800121a800082187800021a80005f
:10694c0002187800121a800082187800021a80004f
:10695c0002187800121a800082187800021a80003f
:10696c0002187800121a800082187800021a80002f
:10697c0002187800121a800082187800021a80001f
:10698c0002187800121a800082187800021a80000f
:10699c0002187800121a800082187800021a8000ff
:1069ac0002187800121a800082187800021a8000ef
:1069bc0002187800121a800082187800021a8000df
:1069cc0002187800121a800082187800021a8000cf
:1069dc0002187800121a800082187800021a8000bf
:1069ec0002187800121a800082187800021a8000af
:1069fc0002187800121a800082187800021a80009f
:106a0c0002187800121a800082187800021a80008e
:106a1c0002187800121a800082187800021a80007e
:106a2c0002187800121a800082187800021a80006e
:106a3c0002187800121a800082187800021a80005e
:106a4c0002187800121a800082187800021a80004e
:106a5c0002187800121a800082187800021a80003e
:106a6c0002187800121a800082187800021a80002e
:106a7c0002187800121a800082187800021a80001e
:106a8c0002187800121a800082187800021a80000e
:106a9c0002187800121a800082187800021a8000fe
:106aac0002187800121a800082187800021a8000ee
:106abc0002187800121a800082187800021a8000de
:106acc0002187800121a800082187800021a8000ce
:106adc0002187800121a800082187800021a8000be
:106aec0002187800121a800082187800021a8000ae
:106afc0002187800121a800082187800021a80009e
:106b0c0002187800121a800082187800021a80008d
:106b1c0002187800121a800082187800021a80007d
:106b2c0002187800121a800082187800021a80006d
:106b3c0002187800121a800082187800021a80005d
:106b4c0002187800121a800082187800021a80004d
:106b5c0002187800121a800082187800021a80003d
:106b6c0002187800121a800082187800021a80002d
:106b7c0002187800121a800082187800021a80001d
:106b8c0002187800121a800082187800021a80000d
:106b9c0002187800121a800082187800021a8000fd
:106bac0002187800121a800082187800021a8000ed
:106bbc0002187800121a800082187800021a8000dd
:106bcc0002187800121a800082187800021a8000cd
:106bdc0002187800121a800082187800021a8000bd
:106bec0002187800121a800082187800021a8000ad
:106bfc0002187800121a800082187800021a80009d
:106c0c0002187800121a800082187800021a80008c
:106c1c0002187800121a800082187800021a80007c
:106c2c0002187800121a800082187800021a80006c
:106c3c0002187800121a800082187800021a80005c
:106c4c0002187800121a800082187800021a80004c
:106c5c0002187800121a800082187800021a80003c
:106c6c0002187800121a800082187800021a80002c
:106c7c0002187800121a800082187800021a80001c
:106c8c0002187800121a800082187800021a80000c
:106c9c0002187800121a800082187800021a8000fc
:106cac0002187800121a800082187800021a8000ec
:106cbc0002187800121a800082187800021a8000dc
:106ccc0002187800121a800082187800021a8000cc
:106cdc0002187800121a800082187800021a8000bc
:106cec0002187800121a800082187800021a8000ac
:106cfc0002187800121a800082187800021a80009c
:106d0c0002187800121a800082187800021a80008b
:106d1c0002187800121a800082187800021a80007b
:106d2c0002187800121a800082187800021a80006b
:106d3c0002187800121a800082187800021a80005b
:106d4c0002187800121a800082187800021a80004b
:106d5c0002187800121a800082187800021a80003b
:106d6c0002187800121a800082187800021a80002b
:106d7c0002187800121a800082187800021a80001b
:106d8c0002187800121a800082187800021a80000b
:106d9c0002187800121a800082187800021a8000fb
:106dac0002187800121a800082187800021a8000eb
:106dbc0002187800121a800082187800021a8000db
:106dcc0002187800121a800082187800021a8000cb
:106ddc0002187800121a800082187800021a8000bb
:106dec0002187800121a800082187800021a8000ab
:106dfc0002187800121a800082187800021a80009b
:106e0c0002187800121a800082187800021a80008a
:106e1c0002187800121a800082187800021a80007a
:106e2c0002187800121a800082187800021a80006a
:106e3c0002187800121a800082187800021a80005a
:106e4c0002187800121a800082187800021a80004a
:106e5c0002187800121a800082187800021a80003a
:106e6c0002187800121a800082187800021a80002a
:106e7c0002187800121a800082187800021a80001a
:106e8c0002187800121a800082187800021a80000a
:106e9c0002187800121a800082187800021a8000fa
:106eac0002187800121a800082187800021a8000ea
:106ebc0002187800121a800082187800021a8000da
:106ecc0002187800121a800082187800021a8000ca
:106edc0002187800121a800082187800021a8000ba
:106eec0002187800121a800082187800021a8000aa
:106efc0002187800121a800082187800021a80009a
:106f0c0002187800121a800082187800021a800089
:106f1c0002187800121a800082187800021a800079
:106f2c0002187800121a800082187800021a800069
:106f3c0002187800121a800082187800021a800059
:106f4c0002187800121a800082187800021a800049
:106f5c0002187800121a800082187800021a800039
:106f6c0002187800121a800082187800021a800029
:106f7c0002187800121a800082187800021a800019
:106f8c0002187800121a800082187800021a800009
:106f9c0002187800121a800082187800021a8000f9
:106fac0002187800121a800082187800021a8000e9
:106fbc0002187800121a800082187800021a8000d9
:106fcc0002187800121a800082187800021a8000c9
:106fdc0002187800121a800082187800021a8000b9
:106fec0002187800121a800082187800021a8000a9
:106ffc0002187800121a800082187800021a800099
:10700c0002187800121a800082187800021a800088
:10701c0002187800121a800082187800021a800078
:10702c0002187800121a800082187800021a800068
:10703c0002187800121a800082187800021a800058
:10704c0002187800121a800082187800021a800048
:10705c0002187800121a800082187800021a800038
:10706c0002187800121a800082187800021a800028
:10707c0002187800121a800082187800021a800018
:10708c0002187800121a800082187800021a800008
:10709c0002187800121a800082187800021a8000f8
:1070ac0002187800121a800082187800021a8000e8
:1070bc0002187800121a800082187800021a8000d8
:1070cc0002187800121a800082187800021a8000c8
:1070dc0002187800121a800082187800021a8000b8
:1070ec0002187800121a800082187800021a8000a8
:1070fc0002187800121a800082187800021a800098
:10710c0002187800121a800082187800021a800087
:10711c0002187800121a800082187800021a800077
:10712c0002187800121a800082187800021a800067
:10713c0002187800121a800082187800021a800057
:10714c0002187800121a800082187800021a800047
:10715c0002187800121a800082187800021a800037
:10716c0002187800121a800082187800021a800027
:10717c0002187800121a800082187800021a800017
:10718c0002187800121a800082187800021a800007
:10719c0002187800121a800082187800021a8000f7
:1071ac0002187800121a800082187800021a8000e7
:1071bc0002187800121a800082187800021a8000d7
:1071cc0002187800121a800082187800021a8000c7
:1071dc0002187800121a800082187800021a8000b7
:1071ec0002187800121a800082187800021a8000a7
:1071fc0002187800121a800082187800021a800097
