:020000040000fa
:080000000002040000000000f2
:020000040000fa
:100400000fa820000e7f22000e01880000000000cf
:10041000000020000000e000020032000001200087
:10042000200288000c000700e0fb200001002000f3
:100430000f000700000020000000e0000200320072
:100440000000020000000000220f02000000000077
:100450000040da000000fe00000720000000e0007d
:1004600002003200002020009001880000000600f9
:10047000a1028800800078000000eb001a0037001d
:10048000e280400054a0b4009101ba00e280400034
:1004900054a0b4009102ba00e280400054a0b4001d
:1004a0000002eb00472bde00f507b200a601880032
:1004b000602ce10008003a000049eb000201e8006e
:1004c000020039003420ec0002f0a0008301e900b2
:1004d000f9ff3e00040037006128e100010032000e
:1004e0000082eb00040007001101ba000200e000e6
:1004f000e3ff3a000000060004d0a300e20f490029
:100500001c003900810278003549ba000201e80078
:10051000020039003420ec0002f0a0008301e90061
:100520000f0032002549ba000201e800020039003c
:100530003420ec0002f0a0008301e9000800320042
:100540000400e0000600320015c9ba000201e8000c
:10055000020039003420ec0002f0a0008301e90021
:100560008180e80054a0b4000300e000e2ff3a00fc
:10057000000006009102ba00055978008301e900e5
:10058000f7ff3200c82ade00055978008301e90030
:10059000f3ff32000400e000f1ff320011d9ba008d
:0405a000eeff370033
:020000040000fa
:020000040002f8
:04aff0003f0300001b
:020000040000fa
:020000040002f8
:04aff400830f0000c7
:020000040000fa
:020000040002f8
:04aff8001ff1000045
:020000040000fa
:020000040002f8
:04affc003f3a0000d8
:020000040000fa
:102000000002040000000000d20f040000000000e5
:10201000d20f040000000000d20f040000000000f6
:10202000d20f040000000000d20f040000000000e6
:10203000d20f040000000000d20f040000000000d6
:10204000d20f040000000000d20f040000000000c6
:10205000d20f040000000000d20f040000000000b6
:10206000d20f040000000000d20f040000000000a6
:10207000d20f040000000000d20f04000000000096
:10208000d20f040000000000d20f04000000000086
:10209000d20f040000000000d20f04000000000076
:1020a000d20f040000000000d20f04000000000066
:1020b000d20f040000000000d20f04000000000056
:1020c000d20f040000000000d20f04000000000046
:1020d000d20f040000000000d20f04000000000036
:1020e000d20f040000000000d20f04000000000026
:1020f000d20f040000000000d20f04000000000016
:10210000d20f040000000000d20f04000000000005
:10211000d20f040000000000d20f040000000000f5
:10212000d20f040000000000d20f040000000000e5
:10213000d20f040000000000d20f040000000000d5
:10214000d20f040000000000d20f040000000000c5
:10215000d20f040000000000d20f040000000000b5
:10216000d20f040000000000d20f040000000000a5
:10217000d20f040000000000d20f04000000000095
:10218000d20f040000000000d20f04000000000085
:10219000d20f040000000000d20f04000000000075
:1021a000d20f040000000000d20f04000000000065
:1021b000d20f040000000000d20f04000000000055
:1021c000d20f040000000000d20f04000000000045
:1021d000d20f040000000000d20f04000000000035
:1021e000d20f040000000000d20f04000000000025
:1021f000d20f040000000000d20f04000000000015
:10220000d20f040000000000d20f04000000000004
:10221000d20f040000000000d20f040000000000f4
:10222000d20f040000000000d20f040000000000e4
:10223000d20f040000000000d20f040000000000d4
:10224000d20f040000000000d20f040000000000c4
:10225000d20f040000000000d20f040000000000b4
:10226000d20f040000000000d20f040000000000a4
:020000040000fa
:1000080004100000081000000c1000001010000080
:1000180014100000341100003411000034110000e5
:10002800181000001c100000201000002410000010
:10003800281000002c1000003010000034100000c0
:10004800381000003c100000401000004410000070
:10005800481000004c10000050100000341100003f
:1000680054100000581000005c10000060100000e0
:100078006410000034110000681000006c100000cb
:100088007010000074100000781000007c10000050
:100098008010000084100000881000008c10000000
:1000a800901000009410000034110000341100007a
:1000b800981000009c100000a0100000a410000080
:1000c800a8100000ac100000b0100000b410000030
:1000d800b8100000bc100000c0100000341100006f
:1000e80034110000c4100000c810000034110000d2
:1000f80034110000cc100000d010000034110000b2
:1001080034110000341100003411000034110000d3
:1001180034110000d4100000d81000003411000081
:1001280034110000dc100000e0100000e4100000b2
:1001380034110000341100003411000034110000a3
:10014800e8100000341100003411000034110000e0
:1001580034110000ec100000f0100000f410000052
:1001680034110000f8100000fc100000001100001d
:1001780034110000341100000411000008110000bf
:100188000c1100001011000034110000341100009f
:10019800141100001811000034110000341100007f
:1001a8003411000034110000341100003411000033
:1001b8001c1100003411000034110000201100004f
:1001c80024110000281100002c1100003411000037
:1001d8003411000034110000341100003411000003
:1001e80034110000341100003411000034110000f3
:0801f800341100003011000079
:020000040000fa
:1005a40012010000000200000000000000400000f2
:1005b4006666000021430000000000000102000004
:1005c4000001000009020000120000000101000007
:1005d40000a0000032090000040000000000000038
:1005e400ff000000ff0000000403000009040000f5
:1005f4001a0300004f0000006c00000069000000b6
:100604006e00000020000000430000006f000000a6
:100614006c0000006c000000650000006700000032
:10062400650000002e030000500000004900000097
:1006340043000000320000003400000046000000c7
:100644004a00000020000000550000005300000094
:100654004200000020000000420000006f00000083
:100664006f000000740000006c0000006f000000c8
:1006740061000000640000006500000072000000da
:020000040000fa
:100684000400fa009424a8000002eb00b4248800bb
:10069400f40f2000742488009424a900a44a2000a4
:1006a400140798000042eb00044f7800080037005c
:1006b4009e4278000582fb00040242009e029000e4
:1006c400048242008002eb00050a78001e4fe80015
:1006d4001e427800ef4f5200f5ff3600d400200090
:1006e4005425880004c4b3008442780006a0200086
:1006f400054b7800048020001450880084c8b3009f
:100704008442780016a02000054b78000484200061
:100714003450880084c0b3008442780056a020007e
:10072400054b78000002eb00342588000002eb0042
:100734004425880004a020004822de00c424880048
:100744008644a80086e4a8008804a80094a4a9000c
:100754000042eb008442780096892000054b780023
:100764000042eb0084427800c6892000054b7800e3
:1007740014c0b30084427800a6892000054b780099
:1007840000c2eb0084427800c6882000054b780044
:1007940000c2eb0084427800d6882000054b780024
:1007a40000000000a52480000404200004826200ec
:1007b400e00f5200fbff3a000080fa000000060040
:1007c4000600fa005424800062026200e00f520026
:1007d40005003200f40f2000742488002400200057
:1007e40054248800aa003700542480006402620064
:1007f400e00f52000300320044002000542488001b
:10080400a30037005424800070026200e00f5200fd
:100814000300320004012000542488009c003700a7
:10082400552480000402200004826200e00f52007c
:10083400030032000402200054248800940037008e
:10084400552480000408200004826200e00f520056
:100854000300320004082000542488008c00370070
:100864005424800061026200e00f52004000320014
:100874000042eb000443780095892000864a780002
:100884000800370084002000542488000000000081
:100894000000000000000000000000000000000054
:1008a400000000005424800068026200e00f52003f
:1008b400f4ff3a00a44a2000140798000042eb0019
:1008c400044f7800080037009e4278000582fb0040
:1008d400040242009e029000048242008002eb0067
:1008e400050a78001e4fe8001e427800ef4f5200c0
:1008f400f5ff360004c4b3008442780006a020004b
:10090400054b7800048020001450880084c8b3008c
:100914008442780016a02000054b7800048420004f
:100924003450880084c0b3008442780056a020006c
:10093400054b78000002eb00b4248800f40f20007b
:1009440054248800d40020005425880014c0b30027
:1009540084427800c6892000054b780014c0b30097
:1009640084427800a6892000054b780048003700af
:100974005424800068026200e00f520044003200f8
:10098400942480004322de00c222dd0004a0200063
:1009940004824200240798002e0290001442900022
:1009a4008442780016882000054b78002e029000bf
:1009b400144278008442780006882000054b7800b1
:1009c4002e029000140290001444880094248000a5
:1009d4000442780084427800b6892000054b7800f0
:1009e40084002000542488000042eb0084427800f4
:1009f40086892000054b7800148820001442780072
:100a04008482fb00c40320000482620045022000ab
:100a1400850f52000800320045032000850f520064
:100a240003003200e40f52000500320005003700d5
:100a340019000700030037005c03070001003700ba
:100a44009303070084892000144278000482fb0089
:100a54006102620004427800e04f52000c00320050
:100a640004c4b3008442780006a02000054b78003b
:100a740044c8b3008442780056a02000054b780097
:100a840044c8b3008442780016a02000054b7800c7
:100a94000080fa00000006000200fa0014448000fe
:100aa400040f78001e0278009442780044882000e5
:100ab400054a78001e0fe8001e0278009442780070
:100ac40044882000154298001e0fe8001e0278009a
:100ad4009442780044882000254298001e0fe800c4
:100ae4001e02780094427800448820003542980021
:100af4001e0fe8001e02780094427800448820000b
:100b0400454298001e0fe8001e02780094427800c7
:100b140044882000554298001e0fe8001e02780009
:100b24009442780044882000654298001e0fe80033
:100b34001e02780094427800448820007542980090
:100b44001e0fe80004c4b3000443780005a020008d
:100b5400864a780084c0b3000443780055a020007e
:100b6400864a78004488200014427800e04f5200fe
:100b7400060035004488200034029000e00f520043
:100b84000200320084ccb3000100370084c8b300f3
:100b94000443780015a02000864a780094a4a90094
:100ba40000c2eb0004437800c5882000864a780020
:100bb40000c2eb0004437800d5882000864a780000
:100bc40044882000144278008482fb00040620003c
:100bd40004826200e00f5200040032000504200089
:100be400850f520003003200040037000b00070099
:100bf40008003700890307000600370084892000b5
:100c0400144278000404a00004437800858920007d
:100c1400864a78000080fa00000006000600fa0008
:100c240044882000144290000482fb00cfa2de001e
:100c3400b600200007002000860f5200878f5a005c
:100c4400d2023e00046001000b003700d1003700df
:100c5400ce023700cf003700cc02370085013700c1
:100c6400ab013700c9023700330237003f023700b7
:100c74007502370098023700448820001442780037
:100c84000482fb007f026200e10f52001500320073
:100c9400e20f52003d003200e00f5200b5003a006e
:100ca40034508000a589200095427800054a7800d8
:100cb400345080000402e8008042eb00054a7800ca
:100cc40024c0b3000443780045a02000864a78007d
:100cd40084ccb3000443780055a02000864a7800f1
:100ce400ab003700c4892000144278000482fb0062
:100cf400e20f520003003200e30f520008003200fa
:100d04002100370084892000144278000404a000e4
:100d14000443780085892000864a78001a00370049
:100d24004488200044429000e04f520010003a00f2
:100d3400345080008042eb00054a78003450800033
:100d44000402e8008042eb00054a780024c0b300a6
:100d54000443780045a02000864a780084ccb30080
:100d64000443780055a02000864a78000600370026
:100d740084892000144278000404a000044378000d
:100d840085892000864a780081003700c4892000c4
:100d9400144278000482fb00e20f52000300320088
:100da400e30f52002e0032006b003700448820000d
:100db400444290000482fb006f026200e00f520084
:100dc40020003a00355080004488200044429000be
:100dd400e04f520007003d0054a020001442780068
:100de4000482fb006402620042a2de000442780036
:100df4000600370014a02000144278000482fb008f
:100e04006402620042a2de0004427800844a780050
:100e1400345080000402e8008042eb00054a780068
:100e240024c0b3000443780045a02000864a78001b
:100e340084ccb3000443780055a02000864a78008f
:100e44000600370084892000144278000404a000be
:100e54000443780085892000864a780044003700de
:100e6400a44a2000140798004488200044429000bb
:100e74006f4f62009e4278000582fb00040242002c
:100e84008402780044882000444290000402fb005d
:100e94004f22de0005027200c222dd0004a0200001
:100ea40004824200240798001e4378000682fb0057
:100eb400040242009e0290000482420094027800e0
:100ec4004488200044429000e04f520002003d005c
:100ed40044002000010037008400200004826200e6
:100ee400e00f52001500320034508000ae02900032
:100ef400954290008582fb00e4826200c2aade0073
:100f040085427800054a7800345080000402e800e5
:100f14008042eb00054a780024c0b3000443780003
:100f240045a02000864a780084ccb30004437800ae
:100f340055a02000864a78000600370084892000e6
:100f4400144278000404a00004437800858920003a
:100f5400864a78000600370084892000144278000d
:100f64000404a0000443780085892000864a7800a0
:100f74000700370084892000144278000404a0008c
:100f84000443780085892000864a780005023700ea
:100f94000402370044882000144278000482fb00d5
:100fa4007f026200e00f520003003200e20f5200a1
:100fb40028003200a7003700448820002442900013
:100fc4000482fb00e10f52001b003a004488200019
:100fd40014429000e14f520008003a00a589200015
:100fe40095427800e4cfb30004c262000443780061
:100ff400a5892000864a780006003700a4892000cd
:10100400144278000404a00004437800a589200059
:10101400864a78000042eb000443780045a0200093
:10102400864a780084ccb3000443780055a020009d
:10103400864a78000600370084892000144278002c
:101044000404a0000443780085892000864a7800bf
:1010540087003700c4892000144278000482fb0012
:10106400e20f520003003200e30f52001700320077
:101074007100370044882000444290000482fb0041
:101084006f026200e00f520009003a000042eb00d8
:101094000443780045a02000864a780084ccb3003d
:1010a4000443780055a02000864a780006003700e3
:1010b40084892000144278000404a00004437800ca
:1010c40085892000864a780061003700a44a200000
:1010d4001407980044882000444290006f4f620037
:1010e4001e427800e04f5200440032009e427800d5
:1010f4000582fb0004024200840278004488200038
:10110400444290000402fb004f22de0005027200fc
:10111400c222dd0004a020000482420024079800bb
:101124004488200044429000e04f52001a003d00e1
:101134001e4378000682fb00040242009e029000d7
:10114400048242001402780064026200e00f52003c
:101154000a0032004488200014429000e14f5200fb
:1011640002003a000042eb000100370044c8b3001b
:10117400ae02900094429800200037008489200039
:10118400144278000404a0000443780085892000f8
:10119400864a7800190037009e4278000582fb00d9
:1011a400040242009e02900004824200140278006d
:1011b40068026200e00f52000a00320044882000f6
:1011c40014429000e14f520002003a0084c8b30078
:1011d4000100370044c8b300ae0290009442980066
:1011e4000600370084892000144278000404a0001b
:1011f4008442780086892000054b78008489200089
:10120400144278000482fb0061026200e00f520085
:1012140008003a000042eb008442780046a0200017
:10122400054b780084ccb3008442780056a020009b
:10123400054b7800060037008489200014427800aa
:101244000404a0008442780086892000054b7800bd
:101254000700370084892000144278000404a000a9
:101264008442780086892000054b78004d013700c0
:101274004c0137004488200024429000e04f520083
:1012840007003d0084892000144278000404a00073
:101294008442780086892000054b7800410137009c
:1012a400448820001442780084427800c6882000d4
:1012b400054b780044882000144290008442780052
:1012c400d6882000054b7800448820001402900042
:1012d40074448800448820002402900084448800d8
:1012e4004488200034029000944488000042eb00bb
:1012f4008442780046a02000054b780084ccb300db
:101304008442780056a02000054b78002501370060
:10131400448820001442780084427800c688200063
:10132400054b7800448820001442900084427800e1
:10133400d6882000054b78004488200014029000d1
:101344007444880044882000240290008444880067
:10135400448820003402900094448800448820008b
:10136400344290000482fb00e20f52001400320069
:10137400e30f52003c003200e10f520066003a00d5
:10138400242d2800a4448800a4448000144278003a
:101394000482fb00b444880044882000b402900016
:1013a400b4448000848f520003003100448820003c
:1013b40034029000b4448800600107005d003700e7
:1013c40044882000244290000482fb00e00f520075
:1013d40003003a00442e2800a44488000600370085
:1013e40084892000144278000404a0008442780018
:1013f40086892000054b78008489200014427800f7
:101404000482fb0061026200e00f520015003a0002
:10141400a44480000482e8001442780084427800e6
:1014240066892000054b7800a444800063024200d2
:10143400144278008442780076892000054b7800b5
:1014440044882000b4029000b4448000848f520089
:10145400030031004488200034029000b444880022
:1014640036010700330037004488200024429000ee
:101474000482fb00e10f520007003200e20f520029
:1014840008003200e00f520009003a00642f2800df
:10149400a44488000c003700a42f2800a44488002a
:1014a4000900370044312800a444880006003700ae
:1014b40084892000144278000404a0008442780047
:1014c40086892000054b7800848920001442780026
:1014d4000482fb0061026200e00f52000d003a003a
:1014e400a4448000144278000482fb00b4448800c1
:1014f40044882000b4029000b4448000848f5200d9
:10150400030031004488200034029000b444880071
:101514000a0107000700370084892000144278007c
:101524000404a0008442780086892000054b7800da
:101534009c0037009b0037003450800095892000c0
:1015440095427800054a780014c0b30084427800bc
:1015540046a02000054b780084ccb3008442780078
:1015640056a02000054b78008e00370044882000e8
:1015740024429000e14f52002c003e00a44a200077
:101584001407980014c0b300044f78000800370013
:101594001e4378000682fb00040242009e02900073
:1015a400048242008002eb00050a78001e4fe80026
:1015b4001e427800ef4f5200f5ff360044882000a9
:1015c400244290000443780095892000864a7800dc
:1015d40094892000144278000482fb00e00f52003a
:1015e40005003a0024c0b30004437800c5892000f4
:1015f400864a78000400370034c0b30004437800fe
:10160400c5892000864a78000042eb000443780034
:1016140045a02000864a780084ccb30004437800b7
:1016240055a02000864a78005e0037008489200097
:10163400144278000404a000044378008589200043
:10164400864a780057003700c48920001442780085
:101654000482fb00e30f520018003a004488200083
:1016640044429000e04f52000c003a003450800095
:101674008042eb00054a780014c0b30004437800ac
:1016840045a02000864a780084ccb3000443780047
:1016940055a02000864a780006003700848920007f
:1016a400144278000404a0000443780085892000d3
:1016b400864a7800000000003a0037008489200040
:1016c400144278000404a0000443780085892000b3
:1016d400864a780033003700c48920001442780019
:1016e4000482fb00e30f520021003a0044882000ea
:1016f40044429000e04f520015003a004488200014
:10170400244290000482fb00e00f520009003a00da
:101714000042eb000443780045a02000864a78008c
:1017240084ccb3000443780055a02000864a780096
:101734000d00370084892000144278000404a000be
:101744000443780085892000864a78000600370023
:1017540084892000144278000404a0000443780023
:1017640085892000864a7800000000000d003700bb
:1017740084892000144278000404a0000443780003
:1017840085892000864a7800060037008489200075
:10179400144278000404a0000443780085892000e2
:1017a400864a78000080fa00000006000000fa0073
:1017b400b4892000144278008482fb00040f2000c6
:1017c40004826200e00f52002f003a00c488200017
:1017d400144278008482fb00040620000482620024
:1017e40005022000850f520023003200050420006a
:1017f400850f52001e003200e00f520021003a0013
:10180400d4882000144278000482fb00e50f5200c3
:1018140003003200e60f52001200320017003700b6
:10182400e4882000144278000482fb00b424880079
:10183400b4248000e00f520005003a0014c0b30045
:1018440004437800c5892000864a780004003700e4
:1018540024c0b30004437800c5892000864a780078
:1018640002003700350007000000000003003700c5
:101874000c01070001003700000000000000000018
:1018840001003700000000000080fa00000006009c
:101894000000fa00b4892000144278008482fb001e
:1018a400040f200004826200e00f520021003a007d
:1018b400c4882000144278008482fb0004062000bf
:1018c4000482620005022000850f520005003200e8
:1018d40005042000850f520004003a00fa000700b6
:1018e4000300370000000000010037000000000082
:1018f40004c4b3000443780005a02000864a78009d
:1019040084c8b3000443780015a02000864a7800f8
:101914000042eb000443780045a02000864a78008a
:1019240084ccb3000443780055a02000864a780094
:10193400000000000080fa00000006000200fa0027
:10194400b5448000f4032000848f52000d003e0053
:10195400b4448000044f78000002eb00b4448800d3
:1019640000c2eb0004437800c5882000864a780052
:1019740000c2eb0004437800d5882000864a780032
:101984000500370004c4b300044f7800b444800059
:101994000404b100b44488000042eb0014479800ea
:1019a4000c003700355080001e4290000482fb007a
:1019b40084824200a444800014437800864a78005c
:1019c4000402e800a44488001e4290000442e80097
:1019d400144798001e4290009e4f5200f1ff3900b8
:1019e4009e42780044a02000054a780054a02000bc
:1019f4001442780004c2ea0006c4b30086426200be
:101a040084c8b30004c272000443780055a02000c7
:101a1400864a78000080fa00000006000600fa00fa
:101a240044882000144290000482fb006123b90022
:101a3400e4ff2f00f5ff2f000602420087824a00d0
:101a44004600200007002000860f5200878f5a00ae
:101a54008c003e0004600100040037003d003700a4
:101a6400500037008700370073003700a40280005d
:101a7400140798004488200014029000a4028800ef
:101a84000002eb00040f7800210037004488200096
:101a9400240290001402ba002407980034508000f5
:101aa4001e024200ce429000054a78001e0fe80054
:101ab400345080001e024200de429000054a780045
:101ac4001e0fe80044882000240290001482ba000b
:101ad40024079800345080001e024200ce42900039
:101ae400054a78001e0fe800345080001e024200b0
:101af400de429000054a78001e0fe800448820006a
:101b0400240290008482e800448820002502980082
:101b140044882000340290009e0f5200dbff3e00f8
:101b24009e029000a50288004488200034029000a0
:101b3400044278008442780046a02000054b7800d7
:101b440084ccb3008442780056a02000054b780072
:101b54005200370044882000144278008442780000
:101b6400c6882000054b7800448820001442900069
:101b740084427800d6882000054b780044882000f1
:101b840014029000744488004488200024029000c9
:101b940084448800448820003402900094448800df
:101ba4003e00370024042400043b8800a602800081
:101bb400160798004488200014029000a4028800ac
:101bc40044882000240290008002eb00050abb0038
:101bd4001000fc0054052000343b8800a40a2000b7
:101be400343b880061e7a80000000000000000000a
:101bf40000000000053b800004002800048262000d
:101c0400e00f5200fbff3a0061c7a9001e029000da
:101c1400a40288000042eb000443780045a02000a1
:101c2400864a780084ccb3000443780055a0200091
:101c3400864a78001900370014c0b30004437800c2
:101c4400e5892000864a7800448820001402900028
:101c5400044588004488200024029000144588002c
:101c64000042eb000443780045a02000864a780037
:101c740084ccb3000443780055a02000864a780041
:101c84000600370084892000144278000404a00070
:101c94000443780085892000864a78000080fa0091
:101ca400000006000000fa00848920001442780035
:101cb4000404a0000443780085892000864a780043
:101cc4000080fa00000006000800fa00d488200012
:101cd400144278000482fb00e30f520050003a00e3
:101ce40014002400043b8800a40280001407980018
:101cf40074448000a40288008544800084ff2f007f
:101d040004826200240798000002eb00040f7800ac
:101d14000a0037002e0290001e0242008082eb006f
:101d2400050abb002e0290001e0242000402e800d5
:101d3400f50f2000058abb001e8fe800f407200081
:101d44009e027800848f5200f2ff36000002eb00fe
:101d5400040f78001d003700145080001e0242005a
:101d640014427800644798001e0fe8001450800065
:101d74001e02420014427800744798001e0fe800c7
:101d8400be02900084448000050abb001450800009
:101d94001e02420014427800644798001e0fe800b7
:101da400145080001e0242001442780074479800c8
:101db4001e0fe800be02900084448000058abb0028
:101dc400844480000482e8008444880094448000b1
:101dd4009e0f5200e0ff3e001000fc00540520005e
:101de400343b8800a40a2000343b880061e7a80043
:101df400000000000000000000000000053b80001f
:101e04000400280004826200e00f5200fbff3a0045
:101e140061c7a9009e029000a50288000600370051
:101e240084892000144278000404a00084427800cd
:101e340086892000054b78000080fa000000060027
:101e44000000fa0004102000343a88000002eb007d
:101e5400142788000002eb00242788000002eb000e
:101e6400342788000002eb00542788000002eb00ae
:101e7400642788009516800004002800048262000c
:101e8400e00f5200020032000010040000000000c5
:101e94000403280024088800a4862100140888006c
:101ea400d8e2a900dae2a800150037002404800073
:101eb40068026200e00f520011003200d516800063
:101ec400040820000482620004f0a7000402ea006f
:101ed4000402e9004f22de00044278000482fb0081
:101ee400610262004722dd00d6168000f5f72f005c
:101ef4008502630005027200d41688008460a9007c
:101f0400551780000408200004826200e00f52008c
:101f1400e6ff3200dae2a900d9f907000042eb003b
:101f240004437800e5892000864a7800e48920008b
:101f340014427800e04f52000d0032000445800046
:101f440015458000e00f5200e08f5a000700320070
:101f5400044580001545800061025200e0825a0069
:101f64000445880015458800010037000000fe0084
:081f740013fa0700edff37002e
:020000040000fa
:101f7c009e0800000600000080000000000a00001f
:101f8c008000000080000000000800009e0000009f
:081f9c008000000000000000bd
:020000040000fa
:081fa4000040da000000fe001d
:00000001FF
